:400000000080002011000000890000008900000008B5044B1A6803F53F5302331A6000F03BF800BFFA46004010B5054C237833B9044B13B10448AFF300800123237010BD32
:400040007081FF1F0000000030040000084B10B51BB108480849AFF300800848036803B910BD074B002BFBD0BDE81040184700BF00000000300400007481FF1F0881FF1F09
:400080000000000062B6FEE708B500F091F903680C2B00D1FEE7FEE708B5104E104D16E029686B68AC68002204E051F8040B43F8040B0432A242F8D1E868002203E00021E8
:4000C00043F8041B04328242F9D11035013E002EE6D100F073F9FFF7D5FFFEE7010000008004000008B5124A124B1A60124A136843F40073136000230AE0032B03D80F4A96
:4001000052F8231000E00E490E4A42F8231001332F2BF2D90C4B1A780C4B1A70094A0C4B1A6000F0B9F800220A4B1A6008BD00BF0004FA050CED00E014ED00E0000000002C
:40014000890000000080FF1FBC7600400481FF1F08ED00E00081FF1FFEE700BFF0B40022174611E050F82760F3B226F0FF0608E001EB420511F812406D78A5550132013BC4
:40018000DBB2002BF4D10137242FEBD9F0BC7047064B1B78DBB203F00701054A11701B09013213704422034B1A707047CF0100496E5800407658004008B50A46002100F0BA
:4001C0002EF908BD38B55F22264B1A801823264A137040F2424102321180023213700622224B1A705222A3F580731A70204B1B78DBB2204A13704FF4E1621F4B1A8041F25E
:400200005122023B1A80002419250CE01B4B1B7803F0010343EA440404F003044FF4F07000F0B6F8013D0DB1032CEFD115B90320FFF792FF124A4FF4807313800723137050
:40024000002310490B7048200231087013700532137002220C4B1A700C4A137843F00303137038BD8040004082400040004300400F010049A1460040224200402542004050
:40028000044000400640004001400040A243004008B500F0B9F808BD38B572B62C4A137843F00403137000240CE02A4963001A1952000A4423445B00C8589188FFF77CFF73
:4002C0000134E4B2052CF0D94FF090402249FFF745FF224A137843F0020313701032137843F0020313701E4C237843F040032370A2F58632513A137843F0100313701948AE
:4003000019490822FFF7C4FF184819490822FFF7BFFF184818490A22FFF7BAFF174818490822FFF7B5FF174A137843F008031370154D61232B70FFF745FF81232B70FFF70B
:4003400027FF124821460E22FFF7A2FF38BD00BFE8460040340400009400004803500140A043004002510040280E0048C2510040300E0048F0510040380E00481251004046
:40038000440E00482243004000480040B04300400230800803D000BF01380046FCD17047EFF3108072B6704780F31088704700BF014B1868704700BF6C81FF1F0E4B70B557
:4003C0001E460E4C0025E41AA410A54204D056F8253098470135F8E700F040F8084B094C1E46E41AA4100025A54204D056F8253098470135F8E770BD6804000068040000B4
:40040000680400007004000010B5431E0A44914204D011F8014B03F8014FF8E710BD03460244934202D003F8011BFAE770470000000000002051004050000000014000103E
:4004400000140140000800400140000A004C0140000200500140200043000000F8B500BFF8BC08BC9E4670474D000000E5000000F8B500BFF8BC08BC9E46704729000000B8
:40048000900400000881FF1F68000000200000000000000000000000000000000000000000000000000000000000000000000000000000005804000000000000000000001D
:4004C000000000000000000000000000000000000000000000000000000000000000000000000000000000000000000000000000000000000C81FF1F000000000000000051
:4005000000000000000000000000000000000000000000000000000000000000000000000000000000000000000000000000000000000000000000000000000000000000BB
:40054000000000000000000000000000000000000000000000000000000000000000000000000000000000000000000000000000000000000000000000000000000000007B
:40058000000000000000000000000000000000000000000000000000000000000000000000000000000000000000000000000000000000000000000000000000000000003B
:4005C00000000000000000000000000000000000000000000000000000000000000000000000000000000000000000000000000000000000000000000000000000000000FB
:020000040003F7
:0200000480007A
:40000000014500400552004007640040016500404A0001403C010140570201405D0301404F04014059050140440601405B0701405908014054090140510A0140560B01402F
:40004000450C0140560D0140500E0140420F01404D1401406B150140501601405E17014014190140091B0140064001400A410140084201400443014003460140044701404A
:400080000948014002490140014C014006500140015101407E0200200401610878017C4071087B407C407E207F4080388372870F00010110021E041E0518062109080A10D4
:4000C0000C1E0E210F04120113E3140A159C16351762181E19601A211C1E1D1C1E211FE121E72202231825402608280629FF2A392D242E0431603220331F341F35983A088F
:400100003B083E1054185604580459045B045C015F018405860A8A088C078E0892049403960C98079A089C079E08A202A407A608A807AA08AE01B207B608B880BE44D804CC
:40014000DB04DF01020103BA05040601070808100A010B680C040E410F081006112012A014501540171019101B041E122114220929292B013258330138A83B014D204E040D
:400180005A0260406180630465046720681A69026D446E206F407021731274847644804081218201840285048A018F84C0EFC2FFC4FFCA0FCC0FCE0FD601D80D0308051F27
:4001C0000B100D060F191101131E151E17011B011F0223042401250A27352B1F2D1F311F332036013B083E403F01580459045B045C105F01802282D1844485088631870426
:4002000088678B018F0293029401950C960E990C9D089F04A467A701B080B104B207B308B460B502B618B701B902BE40BF54C024C103C206C401C50CC60EC805C9FFCAFFF5
:40024000CBFFCC62CDA0CEF0CF41D00CD602D711D804D904DA04DB04DF01E640E702E910EA30EB10ED10EE10EF120004010A030404080610084009400A2011041420188567
:400280001A201D4021802201232424102504260129042D012F163128324534083602375039283A083B903E813FA84001412943014501468049044B1053405B2069846B048C
:4002C0006D106E49701473017402752076217C107D208104834084089128921094A896E8976D980299109A449B409C409D089F09A08CA210A304A5B0A72BA801AA01AB0248
:40030000AC10AD01B020B2A0B310B720C00EC204C424CAF2CCFFCEFED00FD204D604E006E80CEC07001C0108022304030502061C09040A100E1F0F1312081415151F162AC5
:40034000181F19131B0C1D0F1E021F1021032201240C250C26332713290C2A042C1F2D01321F3420350F371C3A203BA83E04580459045C015F01801F8113830C860287015E
:40038000881F8B048D1F8E08900F9210931F96109702981F9B109E1F9F08A015A11FA20AA413A515A60CA70AAA04AB1FAD0FAE01AF10B01FB31FBE01BF04D804D904DB047B
:4003C000DF010120028003220488051109800BA80C400E600F08101011481204130214901510160219081B201E802120224426082A182B812C402E402F1531203244350545
:40040000376038243A803B013C083D423E2041014280651067086C046D816E0474117504770178417A4280088280830188108B44903491949230930195039688976898020C
:4004400099609A7F9B049C089F10A086A105A205A305A560A602A732A910AD02AF09B212B420B708C0FFC2FFC4FFCAFFCCFECEFFEC44EE220101021F041905010606090121
:400480000A020D010E10101F1101140A15011615181F19011C071D011E182101220125012608281F29012D012E043301361F39083A303E403F04580459045B045C015F0168
:4004C000800782388501860288188A278C1F8D019208940A950196359A109C189E27A201A419A626AA04AC1FB020B101B41FBA02BE10D804D904DB04DC01DF010008020480
:40050000038205810610070808460A040B220C440E800F0811D01210130114201605170119211B021E011F10210125082A042B202C012D282F40330436A9381039843A10CC
:400540003C043E113F80684269106B106D2A6E407008718073447410750476817A407B807E407F80827087848B299010918C92149542976A980399089A409B0D9C809D0160
:400580009F72A081A20DA324A598A610A712A840A910AA11AB88AC02AD44B040B108B320C0FFC2FFC4FFCAF0CCF2CEFAE204E401E604000302140308040A06340713083344
:4005C0000A0C0C330E0411311208130E1840196C1A151B03253127462F4C30603210330F340F3530374A380239203A203B883E043F104003474049FF4A074BFF4C404D208B
:400600004EF04F055008580459045A045B045F01604061A86240632081018201831E8506861F871988068A198B048E1F8F1F910A920893159401961E97089A1F9B019C0ADB
:400640009E159F1FA202A302A51FA61FAA04AB10AD1FAE10B21FB51FBE04BF10D804D904DB04DF0100440102022C05100751082409020A020E800F081120124013481908CD
:400680001D101E801F1521102715282029812A202F11328533203711386039013A043F0A47044F0856015701684169106A086C506F0A7024714275247682822083118820D7
:4006C0008B108D108E809340948C9530960299039A409CAC9D6C9E029F08A010A120A288A320A461A70AA901AB10AC48AD01AF10B280B514B601B701C0FFC25FC40FCA5F36
:40070000CCAFCECFD040E080E220EC2002040310061F070108130A0C0B080E020F1F11151201132A15131610172C180F1A101B041C151D101E0A1F0F201F2110230F241F4B
:40074000271F28102A0F2B022D0F2E082F10301F331F35203B203E013F04580459045C105F0182048304841F871F880C8A138B088E108F019015911F920A95199601970671
:400780009A1F9B029E1F9F1FA107A202A318A41FA51FA803AA1CAB10AD0AAE08AF15B01FB31FBE01BF04D804D904DB04DF0100020228030204060540070408200A660B02B2
:4007C0000C510D400F20101411401280130A1424160217011B011C4021242508281229202A012C902F0930A132093442361A3706382039813A083D883E143F014C014D8034
:40080000600862206E506F90740475807648888089208A80902091409220935094C89538960699029B019CC99D0C9E809F08A010A150A218A330A444A528A602A781A8608B
:40084000A901AA0CAE40B680C0FFC2FFC4FFCAFFCCFFCEFFE080EA40EE200001010703180401070808010B040C010D190F061001131F1402171018011B1F1C021F1F2002CF
:4008800023012402251F28012B022C012D0A2F1530013402371F38223E113F40580459045B045F0180188101820785018610881989018A068E02900A9215961F98189A07FE
:4008C0009E08A101A204A407A501A618AA01AC18AE07B61FB701B980BE40BF40D804D904DB04DF0100820268044405100680080909800A040D080E080F821010110112160F
:40090000130814A0152017401B401D112280240229092C012E042F44345035043602381239083C0A3E60681069416A106D226E806F207018720273407522762077018248DD
:40094000831085408F129014922093989408951096169A409B429D209E1A9F10A180A234A408A520A602A780A820A901AA62AB20AF0AB001B110B240B340B411B620C0FF4B
:40098000C2FFC4FFCAF3CCF0CEF7E840EAA0ECA0001C01030203031C040C061307010A040B1F0D1C0E080F03101F131016021702181C1A031B1F1C151E0A1F1F2115221F1D
:4009C000230A26102708290C2A012B132C032E1C2F04331F341F3E103F04580459045B045F018001821E83048602870889138A108B0C8E018F01911F921F9406950F961974
:400A00009710981F9B1F9E1F9F1FA00AA215A310A608A71FAA04AB02AC1EAD15AE01AF0AB11FB41FBE10BF01D804D904DB04DF0100200240031204020520062208900A56E1
:400A40000B020C240E400F0111141282130114811520170818041E082010274028842A802B202C202F89302A3280341035013688380A3A503C803D213E0844044510471043
:400A80006401664068516A206D056EA0701071807280731074027508770A8508870489208A488E80C0FFC2FFC4FFCAFFCCFFCEFFE040E6800101031E0701091F0F041310BA
:400AC000151F191F1F08210A231525062719291F2F02351F3F104032410546EB470C481C49FF4AFF4BFF4EF04F44500C59045A045B045F0166C06A406B02811F8204832051
:400B0000841F871F88038A1C8B108E028F08910C92109333960197019A1F9B029D159E1F9F2AA015A11FA20AA40CA613A704A91FAA1FAD03AE08AF3CB21FB520B71FBB2049
:400B4000BE04BF40D804D904DB04DC10DF0105110620070109100B0C0C800D161490160817401C102220251026802704289029042A202B062C802D802E202F2130023120C6
:400B80003240330434A03605380439703A013B023C203E083F8640084308442045044A02500452105380681469026A806C406E206F22702071027210730275417728801425
:400BC00081208340858086808701888089308B018C148D108E408F01902091489240948095029610970A988899049A809B409D609E119F2EA002A124A207A30DA424A6B0C0
:400C0000A780A910AA40AB01AC40AD10B041B210C0F0C2F0C4F0CAFFCCFFCEFFD006D208E208E401000F0210031F0410060F071008100A0F0B010D1F0E0111061204131998
:400C40001415160A1702181F1B041D0A1E101F152202231F2413260C2708291F2A082C102D012E0F2F1E351F361F3E403F10580459045B045F018210860189078A1F8B10EC
:400C80008C188E07901991039206930C950496029703990A9A1F9B049C0A9E159F18A105A208A407A618A920AA04AC1FAD04B320B61FB71FBE40BF04D401D604D804D9045E
:400CC000DB04DF010002010802010304048005030714088209200A100C840D010F081008118412401410152116011B401F40224424042A102B822C202D022F0532523308EA
:400D000034803510360137083A203C203D803F064330584159205A086340641065046C106D61759877407D047F20801A810482018302860287409010910892609304940427
:400D4000978B988499019AE09DC09F22A0DBA164A204A32DA404A6B0A740A924AB42B0A0B140B310B541B714C0FFC2FFC4FFCAFDCCFFCEF4D60FD801E206E604E804EA02AA
:400D800082018304870193089A019B019C809F40A120A304A980AB08AC10AE20B004B121B201B448E860EA02834085208C809C809F40A120B304E010EA80338134013640FD
:400DC0008382CCF0E6A0038052085F029B029C019F01A640C010D420D68052809F01A648AF80B001B608D420EC109F01A648AE80EE10A408B008EE0409080C08A408C20CF7
:400E0000220857088640A648AF01C840D440E640EA40AB08EE80AD08000308030A030C0310031A0300AF0000012828002800000000080800080000004000000101000100A6
:400E4000C0000000000B0B0000000000000000000000000000000000000000000000000000000000000000000000000000000000000000000000000000000000000000009C
:400E80000000000000000000000000000000000000000000000000000000000000000000000000000000000000000000000000000000000000000000000000000000000032
:400EC00000000000000000000000000000000000000000000000000000000000000000000000000000000000000000000000000000000000000000000000000000000000F2
:400F000000000000000000000000000000000000000000000000000000000000000000000000000000000000000000000000000000000000000000000000000000000000B1
:400F40000000000000000000000000000000000000000000000000000000000000000000000000000000000000000000000000000000000000000000000000000000000071
:0200000490006A
:0400000000004005B7
:0200000490105A
:04000000BC90ACAF55
:0200000490303A
:02000000713C51
:0200000490402A
:4000000000000000000000000000000000000000000000000000000000000000000000000000000000000000000000000000000000000000000000000000000000000000C0
:400040000000000000000000000000000000000000000000000000000000000000000000000000000000000000000000000000000000000000000000000000000000000080
:400080000000000000000000000000000000000000000000000000000000000000000000000000000000000000000000000000000000000000000000000000000000000040
:4000C0000000000000000000000000000000000000000000000000000000000000000000000000000000000000000000000000000000000000000000000000000000000000
:0200000490501A
:0C00000000012E16106900012E1B81A5C6
:00000001FF